:0A1D35000001020203030404050587
:1009F90090E0B31206B500000000C203C200C202B3
:100A0900C20190E680E054FDF01210007E127F00D2
:100A190090E0F9EEF0A3EFF090E1017412F0A37405
:100A290012F090E0F77412F0A3741CF090E0FF74D8
:100A390012F0A37458F090E1037412F0A37494F0C7
:100A4900EE54C07002613B90E0B7E4F0A37480F00B
:100A5900A3EEF0A3EFF0C374CA9FFF74129ECF24D4
:100A690002CF3400FEE4FCFD90E0AF1206A990E04D
:100A7900AB1206B50000000090E0AF12069190E0BD
:100A8900AB12069DC3120680504190E0AB1206914D
:100A990090E0B9E0FCA3E02FF582EC3EF583E0FDA0
:100AA90090E0B7E0FAA3E02FF582EA3EF583EDF096
:100AB90090E0AB120691EF2401FFE43EFEE43DFD18
:100AC900E43CFC90E0AB1206A980AD90E0B7E0FFF2
:100AD900A3E090E0F9CFF0A3EFF074002480FF7455
:100AE9001234FFFEC390E102E09FF090E101E09E25
:100AF900F0C390E0FCE09FF090E0FBE09EF0C39033
:100B0900E0FEE09FF090E0FDE09EF0C390E0F8E0A9
:100B19009FF090E0F7E09EF0C390E100E09FF09035
:100B2900E0FFE09EF0C390E104E09FF090E103E074
:100B39009EF0D2E843D82090E668E04408F090E6B9
:100B49005CE0443DF0000000D2AF90E680E020E197
:100B590005D209121AFE90E680E054F7F0538EF898
:100B6900C203121D163001051203F9C2013003F246
:100B790012004E50EDC203121C1D20001690E68291
:100B8900E030E704E020E1EF90E682E030E604E0BF
:0B0B990020E0E4121B5912005080C73E
:101CD90090E60AE054F0600B90E509E030E402D3A5
:051CE90022C322D322FA
:1003F90090E6B9E01206F8049400050E01058D0394
:10040900041C06048F08048A0904800A04850B0069
:100419000005F1120FFE4002A1FD90E6BBE024FEAB
:10042900601D14602F24FD600C14601824067045AB
:1004390090E0F98012121CD9503990E1018008909E
:10044900E0FB800390E0FDE0FCA3E0FDEC90E6B367
:10045900F0ED801990E6BAE0FF120003AA06A90799
:100469007B01EA494B600CEE90E6B3F0EF90E6B4FD
:10047900F0A1FDA1ECA1EC121D02A1FD121D3FA1ED
:10048900FD121A15A1FD121CEEA1FD1217FD400265
:10049900A1FD90E6B8E0247F60151460192402706C
:1004A90062A200E43325E0FFA202E4334F8041E475
:1004B90090E740F0803F90E6BCE0547EFF7E00E08C
:1004C900D394807C0040047D0180027D00EC4EFEC7
:1004D900ED4F2435F582741D3EF583E493FF339582
:1004E900E0FEEF24A1FFEE34E68F82F583E05401AC
:1004F90090E740F0E4A3F090E68AF090E68B74026E
:10050900F0A1FDA1EC121D674002A1FD90E6B8E043
:1005190024FE601324026002A1FD90E6BAE0B40152
:1005290004C200A1FDA1EC90E6BAE0705590E6BCCA
:10053900E0547EFF7E00E0D394807C0040047D017E
:1005490080027D00EC4EFEED4F2435F582741D3E90
:10055900F583E493FF3395E0FEEF24A1FFEE34E643
:100569008F82F583E054FEF090E6BCE054801313CB
:1005790013541FFFE0540F2F90E683F0E04420F05E
:100589008072805F121D69506B90E6B8E024FE60AE
:10059900192402704E90E6BAE0B40104D2008054E6
:1005A90090E6BAE06402604C803990E6BCE0547E83
:1005B900FF7E00E0D394807C0040047D0180027DB1
:1005C90000EC4EFEED4F2435F582741D3EF583E4B3
:1005D90093FF3395E0FEEF24A1FFEE34E68F82F519
:1005E90083800D90E6A08008121C42500790E6A077
:0B05F900E04401F090E6A0E04480F038
:0106040022D3
:0300330002004682
:0400460053D8EF326A
:10120000120100020000004012530002000001021F
:1012100000010A06000200000040010009023C0033
:1012200001010080320904000006FF0000000705EC
:10123000010240000007058102400000070502028C
:1012400000020007058602000200070504020002F2
:10125000000705880200020009023C00010100802D
:10126000320904000006FF000000070501024000EB
:101270000007058102400000070502024000000748
:1012800005860240000007050402400000070588AB
:1012900002400000040309040C03530049004C0001
:1012A0004100420026035500530042002000320056
:1012B0002E003000200043006F006E0074007200AA
:0C12C0006F006C006C0065007200000004
:1012CC00C105C107C10642E0DC313341E0EB5141BD
:0312DC00E0DB0054
:1010000090E600E054E74410F090E67AE054FEF0F9
:1010100000000090E61074A0F000000090E611F0CF
:1010200000000090E61274A2F000000090E613F0B9
:1010300000000090E61474E2F000000090E615F065
:1010400000000090E6047480F00000007402F000DC
:1010500000007404F00000007406F0000000740842
:10106000F0000000E4F000000090E618F00000003E
:101070007410F0000000E490E61AF000000074081C
:10108000F0000000E490E619F000000090E61BF08C
:1010900000000090E6917480F0000000F000000075
:1010A00090E695F0000000F000000090E68DF00062
:1010B000000090FC007445F0A37408F0A37415F0D0
:1010C000A37442F0E490E69CF000000090E69D746A
:1010D00004F000000043AF01121D4912139690E680
:1010E0000174FEF075B6FFE4F5B190E10BF090E607
:0610F0005EE044A0F022C6
:101D1600000000E490E10CF0E5BA20E10312005661
:011D2600229A
:1000560090E780E090E0EDF090E781E090E0EEF050
:1000660090E782E090E0EFF090E783E090E0F0F038
:1000760090E784E090E0F1F090E785E090E0F2F020
:1000860090E786E090E0F3F090E787E090E0F4F008
:1000960090E788E090E0F5F090E789E090E0F6F0F0
:1000A60090E0EFE0FF90E0BBE4F0A3EFF090E0F02B
:1000B600E090E0BB75F00012065490E0F3E0FF908C
:1000C600E0BDE4F0A3EFF090E0F4E090E0BD75F061
:1000D60000120654E490E68DF090E0EEE0600241F6
:1000E600A990E0EDE01206F8013E01022E02017031
:1000F60003026505027D06018A0902490A010D10FF
:100106000117110000029EE5BA20E1FB121D2741EE
:10011600A300000090E0F5E090E6CFF0000000902C
:10012600E0F4E090E6D0F000000090E0F3E090E626
:10013600D1F0000000021CBFE5BA20E1FB90E0BB55
:10014600E0FEA3E0FFD394FFEE94E1400B90E7803E
:10015600E08F828E83F0801090E0BBE0FEA3E0FF8C
:1001660090E780E0FD1219CC41A390E0BCE02400AA
:10017600FF90E0BBE03440FE90E0BDE0FCA3E0FD74
:10018600D2094146E5BA20E1FB90E780E01460021F
:10019600412C90E781E090E0DFF090E782E090E08C
:1001A600E0F090E784E0FE90E783E07C002400FF27
:1001B600EC3E90E0E1F0A3EFF090E786E0FE90E7FA
:1001C60085E02400FFEC3E90E0E3F0A3EFF090E73B
:1001D60088E0FE90E787E02400FFEC3E90E0E5F043
:1001E600A3EFF090E789E090E0E7F090E78AE090EF
:1001F600E0E8F090E78BE090E0E9F090E78CE090A3
:10020600E0EAF0E490E10BF090401604F078BF7C51
:10021600E0FDFB7AE079DF7E007F0C1207DA120F31
:100226000F904016E4F0807590E0BCE02400FF904B
:10023600E0BBE03440FE90E0BDE0FCA3E0FDC20977
:10024600020CE6E5BA20E1FB90E0BBE0FEA3E0FF8E
:100256007CE77D80A3E0FAA3E0FB1218C9803EE5A7
:10026600BA20E1FB90E0BBA3E0FF7CE77D80A3A37F
:10027600E0FB121C658026E5BA20E1FB90E0BBA3FB
:10028600E0FF7CE77D80A3A3E0FB121C6590E0BB4A
:10029600A3E0FF1217C98005E5BA20E1FBE490E66A
:1002A6008DF02290E0EDE01206F8032F01039B0289
:1002B60003810303D20502DD0903B60A03650F02B3
:1002C600CF1002F611000003EAE5BA20E2FB7EE752
:1002D6007FC0121C87615EE5BA20E2FB90E780E0F2
:1002E60024FD700A121D6190E7C0EFF0806A8068F5
:1002F60000000090E0F5E090E6CFF000000090E00E
:10030600F4E090E6D0F000000090E0F3E090E6D153
:10031600F000000090E0BDE05401FEA3E04E600452
:10032600D2078002C207021B2DE5BA20E2FB90E04D
:10033600BBE0FEA3E0FFD394FFEE94E1400B8F8277
:100346008E83E090E7C0F0800F90E0BBE0FEA3E074
:10035600FF7CE77DC012166F90E68F7401F022E5F0
:10036600BA20E2FB90E0DCE090E7C0F090E0DDE050
:1003760090E7C1F090E68F7402F02290E0BCE02492
:1003860000FF90E0BBE03440FE90E0BDE0FCA3E05F
:10039600FDD209801890E0BCE02400FF90E0BBE0AD
:1003A6003440FE90E0BDE0FCA3E0FDC209020DFE74
:1003B600E5BA20E2FB90E0BBE0FEA3E0FF7CE77D30
:1003C600C0A3E0FAA3E0FB121800801DE5BA20E204
:1003D600FB90E0BBA3E0FF7CE77DC0A3A3E0FB129C
:1003E60014DE8005E5BA20E2FB90E0BDA3E090E6CE
:0203F6008FF086
:0103F80022E2
:02004E00D322BB
:02005000D322B9
:020FFE00D322FC
:101A150090E680E030E71800000090E6247402F0BC
:101A2500000000E490E625F0000000D206801600D4
:101A35000000E490E624F000000090E6257440F0F4
:0F1A4500000000C20690E6BAE090E0ECF0D32279
:101CEE0090E0ECE090E740F0E490E68AF090E68B2E
:041CFE0004F0D322F9
:0A1D3F0090E6BAE090E0DEF0D32257
:101D020090E0DEE090E740F0E490E68AF090E68B27
:041D120004F0D322E4
:0217FD00D322F5
:021D6700D32285
:021D6900D32283
:101C420090E6B9E0242F600B04701490E604E0449F
:101C520080800690E604E0547F000000F08002D30A
:021C620022C39B
:011C6400225D
:0819230090E0C7EEF0A3EFF025
:10192B00E4FB90E0C7E0FF7E000BEE24C9F582E4F8
:10193B0034E0F583EFF090E0C7A3E0FF0E0B74C922
:10194B002EF582E434E0F583EFF00E0B74C92EF51F
:10195B0082E434E0F583EDF090E0EBE025E0FF7CF2
:10196B00E07DC9121C6590E0EBE025E0FF0217C992
:1018C90090E0BFEEF0A3EFF0A3ECF0A3EDF0A3EAF4
:0418D900F0A3EBF09D
:1018DD00E4A3F0A3F090E0C3E0FEA3E0FFA3E0FCDF
:1018ED00A3E0FDC39FEC9E502C90E0BFE475F0018A
:1018FD0012066AAFF0FE90E0C1E0FAA3E02DF5828A
:10190D00EA3CF583E0FD12192390E0C5E475F00182
:05191D0012065480C019
:0119220022A2
:1018000090E0BFEEF0A3EFF0A3ECF0A3EDF0A3EABD
:04181000F0A3EBF066
:10181400E4FBA3F090E0BFE0FCA3E0FDECFF7E005E
:101824000BEE24C6F582E434E0F583EFF00E0B747E
:10183400C62EF582E434E0F583EDF090E0EBE0258C
:10184400E0FF7CE07DC6121C6590E0EBE025E044FF
:1018540001FF90E0C1E0FCA3E0FDA3A3E0FB0214C0
:01186400DEA5
:040DFE00AB07AA068F
:100E020030090575AF07800375AF03EAF59DEBF571
:100E12009E7AE779C07FC074E7F59A74C0F59B7536
:100E2200B1FFEDAE047806CEC313CE13D8F9FF900E
:100E3200E0C1EEF0A3EFF0ED543FA3F0D390E0C297
:100E4200E0940090E0C1E09400407CE5BA20E2FB2F
:100E5200E490E0BFF0A3F090E67CE090E67BF090B7
:100E6200E67CE090E67BF090E67CE090E67BF0901A
:100E7200E67CE090E67BF090E67CE090E67BF0900A
:100E8200E67CE090E67BF090E67CE090E67BF090FA
:100E9200E67CE090E67BF090E0BFE475F00112069C
:100EA2005490E0BFE07004A3E0640870AA90E68F5B
:100EB2007440F090E0C174FFF5F012065474E7F547
:100EC2009A74C0F59BC13E90E0C3E07003F5B12275
:100ED200E5BA20E2FBE490E0BFF0A3F090E0C3E0CB
:100EE200FFFDC390E0C0E09D90E0BFE0940050148D
:100EF20090E67CE090E67BF090E0BFE475F00112B2
:0C0F0200065480D890E68FEFF0E4F5B1C3
:010F0E0022C0
:080CE60090E0BFEEF0A3EFF077
:100CEE0030090575AF07800375AF0379807F807477
:100CFE00E7F59A7480F59B90E0BFE0FAA3E0FBEA7B
:100D0E00F59DEBF59E75B1FFEDAE047806CEC313DF
:100D1E00CE13D8F9FF90E0C3EEF0A3EFF0ED543F01
:100D2E00A3F0D390E0C4E0940090E0C3E0940040C0
:100D3E007BE5BA20E1FBE490E0C1F0A3F090E67B06
:100D4E00E090E67CF090E67BE090E67CF090E67B2F
:100D5E00E090E67CF090E67BE090E67CF090E67B1F
:100D6E00E090E67CF090E67BE090E67CF090E67B0F
:100D7E00E090E67CF090E67BE090E67CF090E0C1BF
:100D8E00E475F00112065490E0C1E07004A3E06433
:100D9E000870AAE490E68DF090E0C374FFF5F012AF
:100DAE00065474E7F59A7480F59BA13090E0C5E087
:100DBE007003F5B122E5BA20E1FBE490E0C1F0A3A7
:100DCE00F090E0C5E0FFC390E0C2E09F90E0C1E08C
:100DDE009400501490E67BE090E67CF090E0C1E445
:0F0DEE0075F00112065480D9E490E68DF0F5B14E
:010DFD0022D3
:0E1D2700E5BB30E7FB90E780E090E6F1F022AC
:101C8700E5BB30E7FB90E6F1E090E0DBF0E5BB3049
:0B1C9700E7FB90E6F2E08F828E83F006
:011CA200221F
:101CBF00E5BB30E7FB00000090E6D27401F0E4F5DD
:0A1CCF00BBE5BB30E7FB000000227C
:101B2D00E5BB30E7FB00000090E6E27402F0000038
:101B3D000075BB06000000E5BB30E7FB0000003080
:0C1B4D00070990E6487406F00000002232
:1019CC00EE7045EF1206F819F58019F89019FBA086
:1019DC0019FEB01A01B11A04B21A07B31A0AB41AD2
:1019EC000DB51A10B600001A148D80228D90228D20
:1019FC00A0228DB0228DB1228DB2228DB3228DB456
:091A0C00228DB522AF058FB62230
:10166F00EE7075EF1206F816988016A09016A8A0C7
:10167F0016B0B016B8B116C0B216C8B316D0B4169D
:10168F00D8B516E0B6000016E78D828C83E580F0A2
:10169F00228D828C83E590F0228D828C83E5A0F0E1
:1016AF00228D828C83E5B0F0228D828C83E5B1F0A0
:1016BF00228D828C83E5B2F0228D828C83E5B3F08C
:1016CF00228D828C83E5B4F0228D828C83E5B5F078
:0916DF00228D828C83E5B6F02215
:101B8500C0E0C083C082C085C084C086758600D28F
:101B9500015391EF90E65D7401F0D086D084D08535
:071BA500D082D083D0E032B2
:101BD300C0E0C083C082C085C084C08675860053C0
:101BE30091EF90E65D7404F0D086D084D085D082E6
:051BF300D083D0E032B8
:101BF800C0E0C083C082C085C084C086758600539B
:101C080091EF90E65D7402F0D086D084D085D082C2
:051C1800D083D0E03292
:10186500C0E0C083C082C085C084C086758600C0C4
:10187500D075D000C006C00790E0FFE0FEA3E0FFF2
:1018850090E0FBEEF0A3EFF0F5828E83A37402F0F7
:1018950090E0F7E0FEA3E0FF90E0FDEEF0A3EFF0AF
:1018A500F5828E83A37407F05391EF90E65D741073
:1018B500F0D007D006D0D0D086D084D085D082D0C5
:0418C50083D0E032BA
:101BAC00C0E0C083C082C085C084C086758600D268
:101BBC00035391EF90E65D7408F0D086D084D08505
:071BCC00D082D083D0E0328B
:10175E00C0E0C083C082C085C084C086758600C0CC
:10176E00D075D000C006C00790E680E030E730901C
:10177E00E0F7E0FEA3E0FF90E0FBEEF0A3EFF0F564
:10178E00828E83A37402F090E0FFE0FEA3E0FF9050
:10179E00E0FDEEF0A3EFF0F5828E83A37407F05315
:1017AE0091EF90E65D7420F0D007D006D0D0D086B1
:0B17BE00D084D085D082D083D0E032F0
:01004200328B
:01004A003283
:01005200327B
:0117FF0032B7
:011D6B003245
:011D6C003244
:011D6D003243
:1011CA00C0E0C083C082C085C084C0867586009096
:1011DA00F400E090E10BF090E6957480F0000000D6
:1011EA005391EF90E65F7420F0D086D084D085D0FA
:0611FA0082D083D0E03238
:011D6E003242
:1016E800C0E0C083C082C085C084C0867586009073
:1016F800E10CE090FC00F090E10BE090FC01F09030
:101708004020E090FC02F0904021E090FC03F09033
:101718004026E090FC04F0904027E090FC05F09013
:101728004028E090FC06F0904029E090FC07F090FB
:10173800E69CE4F000000090E69D7408F0000000CC
:101748005391EF90E65F7480F0D086D084D085D036
:0617580082D083D0E032D4
:011D6F003241
:011D70003240
:011D7100323F
:011D7200323E
:011D7300323D
:011D7400323C
:011D7500323B
:011D7600323A
:011D77003239
:011D78003238
:011D79003237
:011D7A003236
:011D7B003235
:011D7C003234
:011D7D003233
:011D7E003232
:011D7F003231
:011D80003230
:011D8100322F
:011D8200322E
:011D8300322D
:011D8400322C
:011D8500322B
:011D8600322A
:011D87003229
:011D88003228
:03004300021500A3
:0300530002150093
:10150000021B8500021BF800021BD300021BAC006B
:101510000218650002175E000200420002004A0045
:10152000020052000217FF00021D6B00021D6C003A
:10153000021D6D000211CA00021D6E000216E800B5
:10154000021D6F0002004A00021D7000021D7100A2
:10155000021D7200021D7300021D7400021D750041
:10156000021D760002004A0002004A0002004A0002
:10157000021D7700021D7800021D7900021D7A000D
:10158000021D7B00021D7C00021D7D00021D7E00ED
:10159000021D7F00021D8000021D8100021D8200CD
:1015A000021D8300021D8400021D8500021D8600AD
:0815B000021D8700021D8800E6
:1012DF006080E0000101010101010107000202022B
:1012EF0002020200070404040404040000000000CA
:1012FF000000003F01010101010101070200000090
:10130F0000000000060404040404040000000000B0
:10131F000000003F020A01012A3C01070001000200
:10132F000101000005050705050505000036000051
:10133F00752D003F010A01012A3C0107000102043B
:10134F000101000004040604040404000036000038
:10135F00752D003F6024E0870000000000000000B2
:10136F00000000000000000000000000000000006E
:10137F0000000000000000000000000047E0806057
:06138F00000000FE4E000C
:1013960090E60174FEF090E6F504F090E080E090AF
:1013A600E6F3F090E081E090E6C3F090E082E09012
:1013B600E6C1F090E083E090E6C2F090E085E09030
:1013C600E6C0F090E086E090E6F4F075AF0774E0D2
:1013D600F59A7400F59B759DE4E4F59EFF90E67B17
:1013E600E090E67CF00FEFB480F390E67174FFF0C6
:1013F600F5B490E672E04480F043B680000000E465
:1014060090E6C4F000000090E6C5F090E087E0901A
:10141600E6C6F090E088E090E6C7F090E089E090BC
:10142600E6C8F090E08AE090E6C9F090E08BE090A4
:10143600E6CAF090E08CE090E6CBF090E08DE0908C
:0B144600E6CCF090E08EE090E6CDF0E8
:011451002278
:101B590090E682E030E004E020E60B90E682E03097
:101B6900E119E030E71590E680E04401F07F147E4A
:0C1B79000012197B90E680E054FEF02280
:101AFE0030090990E680E0440AF0800790E680E025
:101B0E004408F07FDC7E0512197B90E65D74FFF0D1
:0F1B1E0090E65FF05391EF90E680E054F7F022ED
:0A1D4900E490E10AF0D2E9D2AF22E3
:1017C90090E678E020E6F9C2E990E678E04480F016
:1017D90090E679EFF090E678E030E0F990E678E08D
:1017E9004440F090E678E020E6F990E678E030E1D0
:0417F900D8D2E92237
:101AC60090E678E020E6F990E10AE0702990E67861
:101AD600E04480F090E679EFF090E105EBF0AE049B
:101AE600AF05AA06A9077B01A31206EFE490E10958
:081AF600F0A304F0D322C32287
:101A540090E678E020E6F990E10AE0702A90E678D2
:101A6400E04480F090E679EFF090E105EBF0AE040D
:101A7400AF05AA06A9077B01A31206EFE490E109CA
:091A8400F0A37403F0D322C32285
:03004B00020BA401
:100BA400C0E0C0F0C083C082C085C084C0867586A2
:100BB40000C0D075D000C000C001C002C003C0078F
:100BC40090E678E030E20990E10A7406F0020CC87D
:100BD40090E678E020E10E90E10AE0640260067499
:100BE40007F0020CC890E10AE024FE607614604429
:100BF40024FE7003020CB524FC7003020CC3240809
:100C04006003020CC890E1061206E690E109E0FFD9
:100C140004F08F8275830012060590E679F090E166
:100C240005E0FF90E109E06F6003020CC8A37405BE
:100C3400F0020CC890E679E0FF90E1061206E69017
:100C4400E109E0F582758300EF12063290E10A743F
:100C540002F090E105E06401706A90E678E04420D7
:100C6400F0806190E105E024FEFF90E109E0B50722
:100C74000790E678E04420F090E105E014FF90E16D
:100C840009E0B5070C90E678E04440F090E10AE40E
:100C9400F090E679E0FF90E1061206E690E109E0C3
:100CA400F582758300EF12063290E109E004F080CA
:100CB4001390E678E04440F090E10AE4F080059077
:100CC400E10AE4F05391DFD007D003D002D001D081
:100CD40000D0D0D086D084D085D082D083D0F0D03C
:020CE400E032FC
:02000300A9074B
:1000050090E103E0FEA3E0FF8F828E83A3E064030B
:100015007017AD0119ED7001228F828E83E07C008F
:0D0025002FFDEC3EFEAF0580DF7E007F006A
:0100320022AB
:1014DE00121A5490E10AE024FA60101460062407F0
:1014EE0070F1D322E490E10AF0D322E490E10AF005
:0214FE00D322F7
:101C6500121AC690E10AE024FA60101460062407EF
:101C750070F1D322E490E10AF0D322E490E10AF076
:021C8500D32268
:101C1D0090E682E044C0F090E681F0438701000039
:041C2D000000002291
:10197B0090E0BBEEF0A3EFF090E600E05418701689
:10198B0090E0BCE02401FF90E0BBE03400C313F017
:10199B00EF13A3F0801790E600E05418FFBF100D73
:1019AB0090E0BCE025E0F090E0BBE033F090E0BBD2
:1019BB0074FFF5F012066A45F06005121C3180EDDC
:0119CB0022F9
:101C31007400F58690FDA57C05A3E582458370F9C6
:011C41002280
:100F0F0090E0CE7401F0E4A3F0121D5390400574ED
:100F1F0001F090E0CEE0904010F07F01120036908B
:100F2F004420E0C4131354036003D38001C3920819
:100F3F0090E10C7401F090E10B04F090E0C1E0FF40
:100F4F00A3E090E0CBCFF0A3EFF090E0C3E0FEA3DF
:100F5F00E0FF90E0CBE0FAA3E0FBC39FEA9E505482
:100F6F0090E0BFE0FFA3E0FD1210F690400FE4F019
:100F7F0090E0CDF090E0C7E0FF90E0CDE0C39F5050
:100F8F0015120FF7121A8D40057F01021D5A90E0BE
:100F9F00CDE004F080DE90E0CEE004F0E090401071
:100FAF00F090E0C5E0FEA3E0FF90E0CBEE8FF012F3
:100FBF0006548096E490E0CEF090E0C8E0FF90E019
:100FCF00CAE0FD12080090E10CE004F090E0C9E0E7
:100FDF00FF90E10CE0D39F5008121D61EF6002E11A
:070FEF004A90E10B7404F0CD
:010FF60022D8
:0E10F60090E0D0EFF0A3EDF0A3EAF0A3EBF052
:10110400E4A3F0A3F0FD90E0D1E0FFEDC39F5033E2
:1011140074017E00A805088005C333CE33CED8F908
:10112400FF90E0D2E05EFEA3E05FA805088005CE54
:10113400C313CE13D8F9FF90E0D4EE8FF012065407
:101144000D80C3E490E0D4F0A3E05401F030080A29
:1011540090E0D4E0FAA3E0FB801490E0D4E07002C5
:10116400A3E070047F0180027F00EFFB7A007D0121
:101174007F067E011215B890E0D0E0FF7E00A3E068
:10118400FDA3E0FAA3E0FB1215B8D2097B88E4FDC5
:10119400FF121CAB90400974E7F0A3E4F0A304F041
:1011A40090400BE070FA121C31D2097B06E4FDFF7B
:1011B400121CAB9040097402F0A3E4F0A304F09075
:0511C400400BE070FA91
:0111C9002203
:0B15B80090E0D6EEF0A3EFF0A3EDF002
:1015C30090E0D6E0FCA3E0FDAE047803CEC313CED7
:1015D30013D8F9F9ED540790E0D9F0E429F582E442
:1015E3003444F583E0FDE4FC90E0D8E0FFECC39FD6
:1015F300506CA3E0FF7401A807088002C333D8FC32
:1016030090E0DAF090E0D8E014C39CFFEBAE02A8C0
:1016130007088005CEC313CE13D8F990E0DA20E093
:1016230006E0F45DFD8003E04DFD90E0D9E004F0B9
:10163300E06408702690E0D8E014FFECC39F501BD1
:10164300E429F582E43444F583EDF009E490E0D92C
:10165300F029F582E43444F583E0FD0C808AAF057C
:0B166300E429F582E43444F583EDF047
:01166E002259
:081CA300C2097D807B80E4FF93
:101CAB003009059044008003905000EFF0A3EDF055
:041CBB00A3EBF02285
:1008000090E0D0EFF0A3EDF030E073C2097B80E41C
:10081000FD7F01121CAB9040097402F0A3E4F0A329
:100820007402F090400BE070FA9040097402F0A35B
:10083000E4F0C2097B807DC07F01121CAB90400BAD
:100840007402F090400BE070FA121CA390E0D0E02C
:10085000904009F0A3E4F0A37402F090400BE07024
:10086000FA121D53C2097D40121CA7904009740260
:10087000F0A3E4F0A37402F090400BE070FA90E073
:10088000D1E030E177C2097B80E4FD7F01121CAB2F
:100890009040097402F0A3E4F0A37402F090400BBE
:1008A000E070FA9040097402F0A3E4F0C2097B8082
:1008B0007DA07F01121CAB90400B7402F090400BA6
:1008C000E070FA121CA390E0D0E0904009F0A3E49D
:1008D000F0A37402F090400BE070FA121D53C209AD
:1008E0007B807D20E4FF121CAB9040097402F0A3D2
:1008F000E4F0A37402F090400BE070FA90E0D1E0D5
:1009000030E277C2097B80E4FD7F01121CAB90408E
:10091000097402F0A3E4F0A37402F090400BE070BD
:10092000FA9040097402F0A3E4F0C2097B807D9044
:100930007F01121CAB90400B7402F090400BE070F2
:10094000FA121CA390E0D0E0904009F0A3E4F0A3D9
:100950007402F090400BE070FA121D53C2097B80C4
:100960007D10E4FF121CAB9040097402F0A3E4F088
:10097000A37402F090400BE070FA90E0D1E030E315
:1009800077C2097B80E4FD7F01121CAB90400974A3
:1009900002F0A3E4F0A37402F090400BE070FA9030
:1009A00040097402F0A3E4F0C2097B807D807F03DC
:1009B000121CAB90400B7402F090400BE070FA12E6
:1009C0001CA390E0D0E0904009F0A3E4F0A37402EF
:1009D000F090400BE070FA121D53C2097B80E4FDD9
:1009E0007F02121CAB9040097402F0A3E4F0A374E0
:0909F00002F090400BE070FA22C5
:070FF7009040087401F02294
:071D53009040157401F0221D
:101A8D0090E0D07442F0A37440F0904003E0FFE486
:101A9D00FDFCD390E0D1E09DEC6480F890E0D0E0C7
:101AAD006480984012904014E0B50704E4F0D3220E
:081ABD000DBD00010C80DBC32C
:011AC50022FE
:071D5A0090E10BE04FF022C5
:0C00360090E10BE0FEEFF4FFEE5FF02223
:061D610090E10BE0FF22FF
:0300000002145295
:0C145200787FE4F6D8FD75812102149922
:10060500BB010CE58229F582E5833AF583E02250AA
:1006150006E92582F8E622BBFE06E92582F8E222F4
:0D062500E58229F582E5833AF583E493220E
:10063200F8BB010DE58229F582E5833AF583E8F0FE
:10064200225006E92582C8F622BBFE05E92582C8AA
:02065200F22292
:10065400C5F0F8A3E028F0C5F0F8E5821582700231
:060664001583E038F022CE
:10066A00A3F8E0C5F025F0F0E58215827002158343
:06067A00E0C838F0E822A0
:10068000EB9FF5F0EA9E42F0E99D42F0E89C45F0D0
:010690002247
:0C069100E0FCA3E0FDA3E0FEA3E0FF22DC
:0C069D00E0F8A3E0F9A3E0FAA3E0FB22E0
:0C06A900ECF0A3EDF0A3EEF0A3EFF022C4
:1006B500A8828583F0D083D0821206CC1206CC1294
:1006C50006CC1206CCE473E493A3C583C5F0C583B9
:1006D500C8C582C8F0A3C583C5F0C583C8C582C88F
:0106E50022F2
:0906E600E0FBA3E0FAA3E0F92215
:0906EF00EBF0A3EAF0A3E9F0220C
:1006F800D083D082F8E4937012740193700DA3A391
:1007080093F8740193F5828883E4737402936860A4
:06071800EFA3A3A380DFA4
:10071E00E709F608DFFA8046E709F208DFFA803EBD
:10072E0088828C83E709F0A3DFFA8032E309F608AA
:10073E00DFFA806EE309F208DFFA806688828C8326
:10074E00E309F0A3DFFA805A89828A83E0A3F608D0
:10075E00DFFA804E89828A83E0A3F208DFFA8042B4
:10076E0080D280FA80C680D4805580F28029801095
:10077E0080A680EA809A80A880DA80E280CA8029EA
:10078E0088848C8589828A83E493A30586F0A305E9
:10079E0086DFF5DEF3800B89828A83E493A3F60865
:1007AE00DFF9ECFAA9F0EDFB2288848C8589828A28
:1007BE0083E0A30586F0A30586DFF6DEF480E389E9
:1007CE00828A83E493A3F208DFF980D688F0EF6083
:1007DE00010E4E60CD88F0ED2402B4040050C3F536
:1007EE0082EB2402B4040050B923234582239007E0
:0207FE006E7318
:10145E000209F9E493A3F8E493A34003F68001F2A2
:10146E0008DFF48029E493A3F85407240CC8C3338F
:10147E00C4540F4420C8834004F456800146F6DF5E
:10148E00E4800B01020408102040809012CCE47E10
:10149E00019360BCA3FF543F30E509541FFEE49353
:1014AE00A360010ECF54C025E060A840B8E493A31A
:1014BE00FAE493A3F8E493A3C8C582C8CAC583CA45
:1014CE00F0A3C8C582C8CAC583CADFE9DEE780BEFD
:011395000057
:00000001FF
