:0A1D34000001020203030404050588
:10061A0090E0B31204CF00000000C208C205C2076E
:10062A00C20690E680E054FDF01210007E117F00B1
:10063A0090E108EEF0A3EFF090E1107411F0A374CA
:10064A0012F090E1067411F0A3741CF090E10E749C
:10065A0011F0A37458F090E1127411F0A37494F09D
:10066A00EE54C07002E15C90E0B7E4F0A37480F04D
:10067A00A3EEF0A3EFF0C374CA9FFF74119ECF24B8
:10068A0002CF3400FEE4FCFD90E0AF1204C390E018
:10069A00AB1204CF0000000090E0AF1204AB90E070
:1006AA00AB1204B7C3120487504190E0AB1204ABFB
:1006BA0090E0B9E0FCA3E02FF582EC3EF583E0FD83
:1006CA0090E0B7E0FAA3E02FF582EA3EF583EDF079
:1006DA0090E0AB1204ABEF2401FFE43EFEE43DFDE3
:1006EA00E43CFC90E0AB1204C380AD90E0B7E0FFBD
:1006FA00A3E090E108CFF0A3EFF074002480FF7428
:10070A001134FFFEC390E111E09FF090E110E09EEA
:10071A00F0C390E10BE09FF090E10AE09EF0C390F5
:10072A00E10DE09FF090E10CE09EF0C390E107E05C
:10073A009FF090E106E09EF0C390E10FE09FF090F9
:10074A00E10EE09EF0C390E113E09FF090E112E029
:10075A009EF0D2E843D82090E668E04408F090E69C
:10076A005CE0443DF0000000D2AF90E680E020E17A
:10077A0005D200121AD190E680E054F7F0538EF8B1
:10078A00C208120036300605120800C2063008F206
:10079A0012004E50EDC208121BF020051690E68298
:1007AA00E030E704E020E1EF90E682E030E604E0A2
:0B07BA0020E0E4121B2C12005080C74E
:101CC90090E60AE054F0600B90E509E030E402D3B5
:051CD90022C322D3220A
:1008000090E6B9E0120512089B000915010994034E
:1008100008230608960808910908870A088C0B0027
:100820000009F81207FE4002410490E6BBE024FEF6
:10083000601D14602F24FD600C14601824067045A0
:1008400090E1088012121CC9503990E11080089084
:10085000E10A800390E10CE0FCA3E0FDEC90E6B33C
:10086000F0ED801990E6BAE0FF120003AA06A9078E
:100870007B01EA494B600CEE90E6B3F0EF90E6B4F2
:10088000F0410421F321F3121CF24104121D3E41F8
:1008900004120FBB4104121CDE41041210FC400282
:1008A000410490E6B8E0247F6015146019240270BA
:1008B00062A205E43325E0FFA207E4334F8041E460
:1008C00090E740F0803F90E6BCE0547EFF7E00E081
:1008D000D394807C0040047D0180027D00EC4EFEBC
:1008E000ED4F2434F582741D3EF583E493FF339578
:1008F000E0FEEF24A1FFEE34E68F82F583E05401A1
:1009000090E740F0E4A3F090E68AF090E68B740262
:10091000F0410421F31210FE4002410490E6B8E0D9
:1009200024FE601324026002410490E6BAE0B401A0
:1009300004C205410421F390E6BAE0705590E6BC8C
:10094000E0547EFF7E00E0D394807C0040047D0173
:1009500080027D00EC4EFEED4F2434F582741D3E86
:10096000F583E493FF3395E0FEEF24A1FFEE34E638
:100970008F82F583E054FEF090E6BCE054801313C0
:1009800013541FFFE0540F2F90E683F0E04420F053
:100990008072805F1213FB506B90E6B8E024FE601B
:1009A000192402704E90E6BAE0B40104D2058054D6
:1009B00090E6BAE06402604C803990E6BCE0547E78
:1009C000FF7E00E0D394807C0040047D0180027DA6
:1009D00000EC4EFEED4F2434F582741D3EF583E4A9
:1009E00093FF3395E0FEEF24A1FFEE34E68F82F50E
:1009F00083800D90E6A08008121C15500790E6A099
:0B0A0000E04401F090E6A0E04480F02C
:010A0B0022C8
:0300330002004682
:0400460053D8EF326A
:101100001201000200000040125300020000010220
:1011100000010A06000200000040010009023C0034
:1011200001010080320904000006FF0000000705ED
:10113000010240000007058102400000070502028D
:1011400000020007058602000200070504020002F3
:10115000000705880200020009023C00010100802E
:10116000320904000006FF000000070501024000EC
:101170000007058102400000070502024000000749
:1011800005860240000007050402400000070588AC
:1011900002400000040309040C03530049004C0002
:1011A0004100420026035500530042002000320057
:1011B0002E003000200043006F006E0074007200AB
:0C11C0006F006C006C0065007200000005
:1011CC00C10AC10CC10B42E0E6313541E0E95141A5
:0311DC00E0E4004C
:1010000090E600E054E74410F090E67AE054FEF0F9
:1010100000000090E61074A0F000000090E611F0CF
:1010200000000090E61274A2F000000090E613F0B9
:1010300000000090E61474E2F000000090E615F065
:1010400000000090E6047480F00000007402F000DC
:1010500000007404F00000007406F0000000740842
:10106000F0000000E4F000000090E618F00000003E
:101070007410F0000000E490E61AF000000074081C
:10108000F0000000E490E619F000000090E61BF08C
:1010900000000090E6917480F0000000F000000075
:1010A00090E695F0000000F000000090E68DF00062
:1010B000000090FC007445F0A37408F0A37415F0D0
:1010C000A37442F0E490E69CF000000090E69D746A
:1010D00004F000000043AF01121D4812129690E682
:1010E0000174FEF075B6FFE4F5B190E0E5F090E034
:0C10F000EAF0A3F090E65EE044A0F022DD
:0C003600000000E5BA20E1031200562291
:1000560090E780E090E0FCF090E781E090E0FDF032
:1000660090E782E090E0FEF090E783E090E0FFF01A
:1000760090E784E090E100F090E785E090E101F000
:1000860090E786E090E102F090E787E090E103F0E8
:1000960090E788E090E104F090E789E090E105F0D0
:1000A60090E0FEE0FF90E0BBE4F0A3EFF090E0FF0D
:1000B600E090E0BB75F00012045B90E102E0FF9077
:1000C600E0BDE4F0A3EFF090E103E090E0BD75F051
:1000D6000012045BE490E68DF090E0FDE0600241E2
:1000E600AA90E0FCE0120512013E01022F02017007
:1000F60003026605027E06018A09024A0A010D10FC
:100106000117110000029FE5BA20E1FB121D1A41FA
:10011600A400000090E104E090E6CFF0000000901B
:10012600E103E090E6D0F000000090E102E090E606
:10013600D1F0000000021C98E5BA20E1FB90E0BB7C
:10014600E0FEA3E0FFD394FFEE94E1400B90E7803E
:10015600E08F828E83F0801090E0BBE0FEA3E0FF8C
:1001660090E780E0FD1219B141A490E0BCE02400C4
:10017600FF90E0BBE03440FE90E0BDE0FCA3E0FD74
:10018600D2004147E5BA20E1FB90E780E090E781A5
:10019600E090E0ECF090E782E090E0EDF090E7840C
:1001A600E0FE90E783E0FDEDFF90E0EEEEF0A3EFDA
:1001B600F090E786E0FE90E785E0FDEDFF90E0F049
:1001C600EEF0A3EFF090E788E0FE90E787E0FDED24
:1001D600FF90E0F2EEF0A3EFF090E789E090E0F414
:1001E600F090E78BE0FE90E78AE0FDEDFF90E0F50A
:1001F600EEF0A3EFF090E78DE0FE90E78CE0FDEDEA
:10020600FF90E0F7EEF0A3EFF090E78EE090E0F9D4
:10021600F078BF7CE07D017B017AE079EC7E007F9F
:100226000E1205F4120C73807590E0BCE02400FFFA
:1002360090E0BBE03440FE90E0BDE0FCA3E0FDC2F0
:1002460000020D92E5BA20E1FB90E0BBE0FEA3E0E0
:10025600FF7CE77D80A3E0FAA3E0FB121800803E56
:10026600E5BA20E1FB90E0BBA3E0FF7CE77D80A33D
:10027600A3E0FB121C5A8026E5BA20E1FB90E0BB06
:10028600A3E0FF7CE77D80A3A3E0FB121C5A90E06D
:10029600BBA3E0FF121A9D8005E5BA20E1FBE490BE
:1002A600E68DF02290E0FCE0120512033001039C7B
:1002B6000203820303D30502DE0903B70A03660FAE
:1002C60002D01002F711000003EBE5BA20E2FB7E34
:1002D600E77FC0121C7C615FE5BA20E2FB90E780F5
:1002E600E024FD700A120FFA90E7C0EFF0806A80F2
:1002F6006800000090E104E090E6CFF00000009076
:10030600E103E090E6D0F000000090E102E090E624
:10031600D1F000000090E0BDE05401FEA3E04E6085
:1003260004D20C8002C20C021B00E5BA20E2FB904C
:10033600E0BBE0FEA3E0FFD394FFEE94E1400B8F19
:10034600828E83E090E7C0F0800F90E0BBE0FEA3D2
:10035600E0FF7CE77DC012165290E68F7401F02212
:10036600E5BA20E2FB90E0E6E090E7C0F090E0E737
:10037600E090E7C1F090E68F7402F02290E0BCE0D6
:100386002400FF90E0BBE03440FE90E0BDE0FCA31B
:10039600E0FDD200801890E0BCE02400FF90E0BBB6
:1003A600E03440FE90E0BDE0FCA3E0FDC200020E9A
:1003B600AAE5BA20E2FB90E0BBE0FEA3E0FF7CE703
:1003C6007DC0A3E0FAA3E0FB121736801DE5BA2034
:1003D600E2FB90E0BBA3E0FF7CE77DC0A3A3E0FBCC
:1003E600121C388005E5BA20E2FB90E0BDA3E09040
:0303F600E68FF09F
:0103F90022E1
:02004E00D322BB
:02005000D322B9
:0207FE00D32204
:100FBB0090E680E030E71800000090E6247402F021
:100FCB00000000E490E625F0000000D20B80160034
:100FDB000000E490E624F000000090E6257440F059
:0F0FEB00000000C20B90E6BAE090E0FBF0D322CA
:101CDE0090E0FBE090E740F0E490E68AF090E68B2F
:041CEE0004F0D32209
:0A1D3E0090E6BAE090E0E8F0D3224E
:101CF20090E0E8E090E740F0E490E68AF090E68B2E
:041D020004F0D322F4
:0210FC00D322FD
:0210FE00D322FB
:0213FB00D322FB
:101C150090E6B9E0242F600B04701490E604E044CC
:101C250080800690E604E0547F000000F08002D337
:021C350022C3C8
:011C3700228A
:0818B30090E0C7EEF0A3EFF096
:1018BB00E4FB90E0C7E0FF7E000BEE24C9F582E469
:1018CB0034E0F583EFF090E0C7A3E0FF0E0B74C993
:1018DB002EF582E434E0F583EFF00E0B74C92EF590
:1018EB0082E434E0F583EDF090E0E9E025E0FF7C65
:1018FB00E07DC9121C5A90E0E9E025E0FF021A9D39
:1018000090E0BFEEF0A3EFF0A3ECF0A3EDF0A3EABD
:04181000F0A3EBF066
:10181400E4A3F0A3F090E0C3E0FEA3E0FFA3E0FCA8
:10182400A3E0FDC39FEC9E502C90E0BFE475F00153
:10183400120471AFF0FE90E0C1E0FAA3E02DF5824E
:10184400EA3CF583E0FD1218B390E0C5E475F001BD
:0518540012045B80C0DE
:01185900226C
:1017360090E0BFEEF0A3EFF0A3ECF0A3EDF0A3EA88
:04174600F0A3EBF031
:10174A00E4FBA3F090E0BFE0FCA3E0FDECFF7E0029
:10175A000BEE24C6F582E434E0F583EFF00E0B7449
:10176A00C62EF582E434E0F583EDF090E0E9E02559
:10177A00E0FF7CE07DC6121C5A90E0E9E025E044D7
:10178A0001FF90E0C1E0FCA3E0FDA3A3E0FB021C83
:01179A003816
:040EAA00AB07AA06E2
:100EAE0030000575AF07800375AF03EAF59DEBF5CE
:100EBE009E7AE779C07FC074E7F59A74C0F59B758A
:100ECE00B1FFEDAE047806CEC313CE13D8F9FF9062
:100EDE00E0C1EEF0A3EFF0ED543FA3F0D390E0C2EB
:100EEE00E0940090E0C1E09400407CE5BA20E2FB83
:100EFE00E490E0BFF0A3F090E67CE090E67BF0900B
:100F0E00E67CE090E67BF090E67CE090E67BF0906D
:100F1E00E67CE090E67BF090E67CE090E67BF0905D
:100F2E00E67CE090E67BF090E67CE090E67BF0904D
:100F3E00E67CE090E67BF090E0BFE475F0011204F1
:100F4E005B90E0BFE07004A3E0640870AA90E68FA7
:100F5E007440F090E0C174FFF5F012045B74E7F595
:100F6E009A74C0F59BC1EA90E0C3E07003F5B1221C
:100F7E00E5BA20E2FBE490E0BFF0A3F090E0C3E01E
:100F8E00FFFDC390E0C0E09D90E0BFE094005014E0
:100F9E0090E67CE090E67BF090E0BFE475F0011205
:0C0FAE00045B80D890E68FEFF0E4F5B112
:010FBA002214
:080D920090E0BFEEF0A3EFF0CA
:100D9A0030000575AF07800375AF0379807F8074D3
:100DAA00E7F59A7480F59B90E0BFE0FAA3E0FBEACE
:100DBA00F59DEBF59E75B1FFEDAE047806CEC31333
:100DCA00CE13D8F9FF90E0C3EEF0A3EFF0ED543F55
:100DDA00A3F0D390E0C4E0940090E0C3E094004014
:100DEA007BE5BA20E1FBE490E0C1F0A3F090E67B5A
:100DFA00E090E67CF090E67BE090E67CF090E67B83
:100E0A00E090E67CF090E67BE090E67CF090E67B72
:100E1A00E090E67CF090E67BE090E67CF090E67B62
:100E2A00E090E67CF090E67BE090E67CF090E0C112
:100E3A00E475F00112045B90E0C1E07004A3E06481
:100E4A000870AAE490E68DF090E0C374FFF5F01202
:100E5A00045B74E7F59A7480F59BA1DC90E0C5E029
:100E6A007003F5B122E5BA20E1FBE490E0C1F0A3FA
:100E7A00F090E0C5E0FFC390E0C2E09F90E0C1E0DF
:100E8A009400501490E67BE090E67CF090E0C1E498
:0F0E9A0075F00112045B80D9E490E68DF0F5B19C
:010EA9002226
:0E1D1A00E5BB30E7FB90E780E090E6F1F022B9
:101C7C00E5BB30E7FB90E6F1E090E0E4F0E5BB304B
:0B1C8C00E7FB90E6F2E08F828E83F011
:011C9700222A
:101C9800E5BB30E7FB00000090E6D27401F0E4F504
:0A1CA800BBE5BB30E7FB00000022A3
:101B0000E5BB30E7FB00000090E6E27402F0000065
:101B10000075BB06000000E5BB30E7FB00000030AD
:0C1B20000C0990E6487406F0000000225A
:1019B100EE7045EF12051219DA8019DD9019E0A0D9
:1019C10019E3B019E6B119E9B219ECB319EFB41979
:1019D100F2B519F5B6000019F98D80228D90228D8E
:1019E100A0228DB0228DB1228DB2228DB3228DB471
:0919F100228DB522AF058FB6224C
:10165200EE7075EF120512167B80168390168BA022
:101662001693B0169BB116A3B216ABB316B3B4164B
:10167200BBB516C3B6000016CA8D828C83E580F016
:10168200228D828C83E590F0228D828C83E5A0F0FE
:10169200228D828C83E5B0F0228D828C83E5B1F0BD
:1016A200228D828C83E5B2F0228D828C83E5B3F0A9
:1016B200228D828C83E5B4F0228D828C83E5B5F095
:0916C200228D828C83E5B6F02232
:101B5800C0E0C083C082C085C084C086758600D2BC
:101B6800065391EF90E65D7401F0D086D084D0855D
:071B7800D082D083D0E032DF
:101BA600C0E0C083C082C085C084C08675860053ED
:101BB60091EF90E65D7404F0D086D084D085D08213
:051BC600D083D0E032E5
:101BCB00C0E0C083C082C085C084C08675860053C8
:101BDB0091EF90E65D7402F0D086D084D085D082F0
:051BEB00D083D0E032C0
:10179B00C0E0C083C082C085C084C086758600C08F
:1017AB00D075D000C006C00790E10EE0FEA3E0FFAD
:1017BB0090E10AEEF0A3EFF0F5828E83A37402F0B2
:1017CB0090E106E0FEA3E0FF90E10CEEF0A3EFF05A
:1017DB00F5828E83A37407F05391EF90E65D74103E
:1017EB00F0D007D006D0D0D086D084D085D082D090
:0417FB0083D0E03285
:101B7F00C0E0C083C082C085C084C086758600D295
:101B8F00085391EF90E65D7408F0D086D084D0852D
:071B9F00D082D083D0E032B8
:1016CB00C0E0C083C082C085C084C086758600C060
:1016DB00D075D000C006C00790E680E030E73090B0
:1016EB00E106E0FEA3E0FF90E10AEEF0A3EFF0F5D8
:1016FB00828E83A37402F090E10EE0FEA3E0FF90D4
:10170B00E10CEEF0A3EFF0F5828E83A37407F05398
:10171B0091EF90E65D7420F0D007D006D0D0D08644
:0B172B00D084D085D082D083D0E03283
:01004200328B
:01004A003283
:01005200327B
:0113FD0032BD
:0113FE0032BC
:0113FF0032BB
:0117FF0032B7
:101A3200C0E0C083C082C085C084C0867586009025
:101A4200F400E090E0E5F090E6957480F00000008C
:101A52005391EF90E65F7420F0D086D084D085D089
:061A620082D083D0E032C7
:011D6600324A
:10185A00C0E0C083C082C085C084C086758600C0CF
:10186A00D075D000C00690E0EAE0FEA3E090FC004C
:10187A00F0EEA3F090E0E5E090FC02F0A3E4F09033
:10188A00E69CF000000090E69D7404F0000000530E
:10189A0091EF90E65F7480F0D006D0D0D086D084E5
:0918AA00D085D082D083D0E03259
:011D67003249
:011D68003248
:011D69003247
:011D6A003246
:011D6B003245
:011D6C003244
:011D6D003243
:011D6E003242
:011D6F003241
:011D70003240
:011D7100323F
:011D7200323E
:011D7300323D
:011D7400323C
:011D7500323B
:011D7600323A
:011D77003239
:011D78003238
:011D79003237
:011D7A003236
:011D7B003235
:011D7C003234
:011D7D003233
:011D7E003232
:011D7F003231
:011D80003230
:03004300021400A4
:0300530002140094
:10140000021B5800021BCB00021BA600021B7F0020
:1014100002179B000216CB000200420002004A00A5
:10142000020052000213FD000213FE000213FF002F
:101430000217FF00021A3200021D660002185A004D
:10144000021D670002004A00021D6800021D6900BB
:10145000021D6A00021D6B00021D6C00021D6D0062
:10146000021D6E0002004A0002004A0002004A000B
:10147000021D6F00021D7000021D7100021D72002E
:10148000021D7300021D7400021D7500021D76000E
:10149000021D7700021D7800021D7900021D7A00EE
:1014A000021D7B00021D7C00021D7D00021D7E00CE
:0814B000021D7F00021D8000F7
:1011DF006080E0000101010101010107000202022C
:1011EF0002020200070404040404040000000000CB
:1011FF000000003F01010101010101070200000091
:10120F0000000000060404040404040000000000B1
:10121F000000003F020A01012A3C01070001000201
:10122F000101000005050705050505000036000052
:10123F00752D003F010A01012A3C0107000102043C
:10124F000101000004040604040404000036000039
:10125F00752D003F6024E0870000000000000000B3
:10126F00000000000000000000000000000000006F
:10127F0000000000000000000000000047E0806058
:06128F00000000FE4E000D
:1012960090E60174FEF090E6F504F090E080E090B0
:1012A600E6F3F090E081E090E6C3F090E082E09013
:1012B600E6C1F090E083E090E6C2F090E085E09031
:1012C600E6C0F090E086E090E6F4F075AF0774E0D3
:1012D600F59A7400F59B759DE4E4F59EFF90E67B18
:1012E600E090E67CF00FEFB480F390E67174FFF0C7
:1012F600F5B490E672E04480F043B680000000E466
:1013060090E6C4F000000090E6C5F090E087E0901B
:10131600E6C6F090E088E090E6C7F090E089E090BD
:10132600E6C8F090E08AE090E6C9F090E08BE090A5
:10133600E6CAF090E08CE090E6CBF090E08DE0908D
:0B134600E6CCF090E08EE090E6CDF0E9
:011351002279
:101B2C0090E682E030E004E020E60B90E682E030C4
:101B3C00E119E030E71590E680E04401F07F147E77
:0C1B4C000012196090E680E054FEF022C8
:101AD10030000990E680E0440AF0800790E680E05B
:101AE1004408F07FDC7E0512196090E65D74FFF01A
:0F1AF10090E65FF05391EF90E680E054F7F0221B
:0A1D4800E490E119F0D2E9D2AF22D5
:101A9D0090E678E020E6F9C2E990E678E04480F03F
:101AAD0090E679EFF090E678E030E0F990E678E0B6
:101ABD004440F090E678E020E6F990E678E030E1F9
:041ACD00D8D2E92260
:1019FA0090E678E020E6F990E119E0702990E6781F
:101A0A00E04480F090E679EFF090E114EBF0AE0458
:101A1A00AF05AA06A9077B01A3120509E490E118FC
:081A2A00F0A304F0D322C32253
:1007C50090E678E020E6F990E119E0702A90E67865
:1007D500E04480F090E679EFF090E114EBF0AE04A0
:1007E500AF05AA06A9077B01A3120509E490E11844
:0907F500F0A37403F0D322C32227
:03004B00020A0C9A
:100A0C00C0E0C0F0C083C082C085C084C08675863B
:100A1C0000C0D075D000C000C001C002C003C00728
:100A2C0090E678E030E20990E1197406F0020B30A0
:100A3C0090E678E020E10E90E119E0640260067423
:100A4C0007F0020B3090E119E024FE60761460444C
:100A5C0024FE7003020B1D24FC7003020B2B2408D4
:100A6C006003020B3090E11512050090E118E0FFD5
:100A7C0004F08F827583001203FA90E679F090E10E
:100A8C0014E0FF90E118E06F6003020B30A37405D3
:100A9C00F0020B3090E679E0FF90E1151205009022
:100AAC00E118E0F582758300EF12042790E11974C8
:100ABC0002F090E114E06401706A90E678E0442062
:100ACC00F0806190E114E024FEFF90E118E0B5079E
:100ADC000790E678E04420F090E114E014FF90E1F8
:100AEC0018E0B5070C90E678E04440F090E119E48A
:100AFC00F090E679E0FF90E11512050090E118E026
:100B0C00F582758300EF12042790E118E004F08061
:100B1C001390E678E04440F090E119E4F080059001
:100B2C00E119E4F05391DFD007D003D002D001D00B
:100B3C0000D0D0D086D084D085D082D083D0F0D0D5
:020B4C00E03295
:02000300A9074B
:1000050090E112E0FEA3E0FF8F828E83A3E06403FC
:100015007017AD0119ED7001228F828E83E07C008F
:0D0025002FFDEC3EFEAF0580DF7E007F006A
:0100320022AB
:101C38001207C590E119E024FA6010146006240721
:101C480070F1D322E490E119F0D322E490E119F085
:021C5800D32295
:101C5A001219FA90E119E024FA60101460062407B8
:101C6A0070F1D322E490E119F0D322E490E119F063
:021C7A00D32273
:101BF00090E682E044C0F090E681F0438701000067
:041C000000000022BE
:1019600090E0BBEEF0A3EFF090E600E054187016A4
:1019700090E0BCE02401FF90E0BBE03400C313F032
:10198000EF13A3F0801790E600E05418FFBF100D8E
:1019900090E0BCE025E0F090E0BBE033F090E0BBED
:1019A00074FFF5F012047145F06005121C0480ED1F
:0119B0002214
:101C04007400F58690FDA57C05A3E582458370F9F3
:011C140022AD
:100C7300E490E0D0F0121D137FFF121D287F0212B3
:100C83001D597F01121D609040127401F0904420A1
:100C9300E0FFC413135403139200904019E090E053
:100CA300FAF0121A684002A191E490E0EAF0A3F08E
:100CB30090E0CAE0FEA3E0FFC390E0EBE09F90E08A
:100CC300EAE09E4002A17B120FFAEF30E302A17B20
:100CD300E490E0CFF0904015F090E0C1E0FFA3E096
:100CE30090E0CDCFF0A3EFF090E0C3E0FEA3E0FFF0
:100CF300D390E0CEE09F90E0CDE09E505A120FFAE1
:100D0300EF20E35390E0CFE0904015F090E0BFE098
:100D1300FFA3E0FD90E0CDE0FAA3E0FBA200920187
:100D23001214B890E0C7E0FF121CB290E0C7E0FFD6
:100D330012190B40097F02121D287F01804890E0A1
:100D4300C5E0FEA3E0FF90E0CDEE8FF012045B90D0
:100D5300E0CFE004F0809190E0CCE0FF90E0C8E0C9
:100D6300FCA3E0FD120B4E121A68502290E0EAE455
:100D730075F00112045B81B3E490E0EAF0A3F07F25
:0E0D830002121D287F04121D59E4FF121D608C
:010D9100223F
:0E14B80090E0D1EFF0A3EDF0A3EAF0A3EBF08B
:1014C600C202C203E4FD90E0D2E0FFEDC39F501DCF
:1014D600A3E0FEA3E0A805088005CEC313CE13D86B
:1014E600F94E24FF300201B392020D80D9A20130D9
:1014F6000201B39203A203E4FA33FB7D017F0612D5
:10150600135290E0D1E0FFA3E0FDA3E0FAA3E0FBD5
:10151600121352D2047D881215D990400C74E7F04C
:10152600A3E4F004121D0FD2047F007E007D067C2A
:10153600001215DF90400CE4F0A3F090400B04F08D
:03154600021D1370
:02135200A905EB
:10135400EF5407FDEF131313541F90E0D5F0E0FF93
:10136400E42FF582E43444F583E090E0D6F0E4FC25
:10137400ECC399400261FA7401A805088002C333E2
:10138400D8FCF4FF90E0D6E05FF0E914C39CFFEBD7
:10139400AE02A807088005CEC313CE13D8F95401B2
:1013A400FFA805088002C333D8FCFF90E0D6E04FC5
:1013B400F00DED64086005E914B5041590E0D6E07D
:1013C400FF90E0D5E0FEE42EF582E43444F583EFAB
:1013D400F0EDB4081EE914D39C4018E4FD90E0D568
:1013E400E004F0E0FFE42FF582E43444F583E09078
:0613F400E0D6F00C61746C
:0113FA0022D0
:0A15D500C2047D007F007E007C0050
:0615DF0090E0DD1204C3E0
:1015E500E4FB90E0DD1204AB74E12BF582E434E01A
:1015F500F583EFF090E0DD1204AB780812049890C3
:10160500E0DD1204C30BEBB402D890E0DD1204ABAD
:1016150074E12BF582E434E0F583EFF090E0E1E04E
:10162500300415904400F090E0E2E0904401F09021
:10163500E0E3E0904402F022905000F090E0E2E018
:0C164500905001F090E0E3E0905002F0C3
:011651002276
:0B0B4E0090E0D1EFF0A3ECF0A3EDF07D
:100B5900E4A3F090E0D4E0FFC394044002817290D2
:100B6900E0D1E0FEA807088002C313D8FC20E00208
:100B7900816A90E0D4E01460201460331460462444
:100B890003705890E0D51204CF0080C00190E0D9DD
:100B99001204CF00804000805690E0D51204CF00A7
:100BA90080A00190E0D91204CF00802000804090FD
:100BB900E0D51204CF0080900190E0D91204CF0053
:100BC900801000802A90E0D51204CF008080039025
:100BD900E0D91204CF00800002801490E0D51204FD
:100BE900CF0000000090E0D91204CF0000000012ED
:100BF90015D5121D06C2047F017E007D807C00127E
:100C090015DF121D0690E0D51204ABC2041215DFE0
:100C190090400C7402F0A3E4121D0C90E0D512046C
:100C2900ABC2041215DF90400C7402F0A3E4121D4C
:100C39000CC2047F007E807D807C001215DF90E06D
:100C4900D2E0FEA3E090400CF0EE121D0B90E0D92B
:100C59001204ABC2041215DF121D061215D5121D9E
:090C69000690E0D4E004F0615CA7
:010C7200225F
:101CB20090E0D2EFF0121D5290E0D2E0904012F08C
:071CC2009040177401F022AD
:05190B0090E0D2EFF0B6
:1019100090E0D41204CF0000000090E0D2E0FF7EFF
:10192000007C617DA8120449E4FCFD90E0D412041F
:10193000B7C31204875027904017E090E0D3F0E03F
:1019400070012290E0D41204ABEF2401FFE43EFECC
:0F195000E43DFDE43CFC90E0D41204C380BCC332
:01195F002265
:0D1D060090400CE4F0A3F0740290400BF04C
:071D130090400BE070FA2282
:071D5200904017E070FA2237
:071D590090E0E5E04FF022ED
:0C1D280090E0E5E0FEEFF4FFEE5FF0223B
:060FFA0090E0E5E0FF229B
:061D6000904016EFF02296
:101A680090E0D17401F0904019E4F090E0D1E0FFEB
:101A7800121CB290E0D1E0FF12190B400E7F021247
:101A88001D287F01121D591F021D6090E0FAE09089
:041A98004019F0D32E
:011A9C002227
:030000000215499D
:0C154900787FE4F6D8FD75812102159032
:1003FA00BB010CE58229F582E5833AF583E02250B8
:10040A0006E92582F8E622BBFE06E92582F8E22201
:0D041A00E58229F582E5833AF583E493221B
:10042700F8BB010DE58229F582E5833AF583E8F00B
:10043700225006E92582C8F622BBFE05E92582C8B7
:02044700F2229F
:10044900EF8DF0A4A8F0CF8CF0A428CE8DF0A42EC7
:02045900FE2281
:10045B00C5F0F8A3E028F0C5F0F8E582158270022C
:06046B001583E038F022C9
:10047100A3F8E0C5F025F0F0E5821582700215833E
:06048100E0C838F0E8229B
:10048700EB9FF5F0EA9E42F0E99D42F0E89C45F0CB
:010497002242
:10049800E8600FECC313FCED13FDEE13FEEF13FF42
:0304A800D8F12266
:0C04AB00E0FCA3E0FDA3E0FEA3E0FF22C4
:0C04B700E0F8A3E0F9A3E0FAA3E0FB22C8
:0C04C300ECF0A3EDF0A3EEF0A3EFF022AC
:1004CF00A8828583F0D083D0821204E61204E6124C
:1004DF0004E61204E6E473E493A3C583C5F0C58371
:1004EF00C8C582C8F0A3C583C5F0C583C8C582C877
:0104FF0022DA
:09050000E0FBA3E0FAA3E0F922FC
:09050900EBF0A3EAF0A3E9F022F3
:10051200D083D082F8E4937012740193700DA3A378
:1005220093F8740193F5828883E47374029368608C
:06053200EFA3A3A380DF8C
:10053800E709F608DFFA8046E709F208DFFA803EA5
:1005480088828C83E709F0A3DFFA8032E309F60892
:10055800DFFA806EE309F208DFFA806688828C830E
:10056800E309F0A3DFFA805A89828A83E0A3F608B8
:10057800DFFA804E89828A83E0A3F208DFFA80429C
:1005880080D280FA80C680D4805580F2802980107D
:1005980080A680EA809A80A880DA80E280CA8029D2
:1005A80088848C8589828A83E493A30586F0A305D1
:1005B80086DFF5DEF3800B89828A83E493A3F6084D
:1005C800DFF9ECFAA9F0EDFB2288848C8589828A10
:1005D80083E0A30586F0A30586DFF6DEF480E389D1
:1005E800828A83E493A3F208DFF980D688F0EF606B
:1005F800010E4E60CD88F0ED2402B4040050C3F51E
:1006080082EB2402B4040050B923234582239005C9
:020618008873E5
:1015550002061AE493A3F8E493A34003F68001F28C
:1015650008DFF48029E493A3F85407240CC8C33397
:10157500C4540F4420C8834004F456800146F6DF66
:10158500E4800B01020408102040809011CCE47E19
:10159500019360BCA3FF543F30E509541FFEE4935B
:1015A500A360010ECF54C025E060A840B8E493A322
:1015B500FAE493A3F8E493A3C8C582C8CAC583CA4D
:1015C500F0A3C8C582C8CAC583CADFE9DEE780BE05
:011295000058
:00000001FF
